S01B0000415453414D335838455F4C45445F424C494E4B2E7372656388
S2140800007808002065010800610108006101080001
S2140800106101080061010800610108000000000095
S2140800200000000000000000000000006101080059
S2140800306101080000000000610108006101080075
S21408004061010800610108006101080061010800FB
S21408005061010800610108006101080061010800EB
S2140800606101080061010800000000006101080045
S2140800706101080061010800610108000000000035
S2140800800000000061010800610108006101080025
S21408009061010800610108006101080061010800AB
S2140800A06101080000000000610108006101080005
S2140800B0610108006101080061010800610108008B
S2140800C0610108006101080061010800610108007B
S2140800D0610108006101080061010800610108006B
S2140800E0610108006101080061010800610108005B
S2140800F06101080010B5054C237833B9044B13B1D9
S2140801000448AFF300800123237010BD3404002098
S21408011000000000680408000C4B43B10C4810B5FA
S2140801200C49AFF300800C48036823B910BD0A4891
S214080130036833B97047094B002BF7D0BDE8104069
S2140801401847064B002BF5D0184700BF00000000E4
S214080150680408003804002068040800000000004E
S214080160FEE7000008B5114B114A9A4209D00F4B1A
S2140801700F4A03E011681960043304320D498B42B4
S214080180F8D30D4B02E000221A6004330B4A934260
S214080190F9D30B4B23F0604323F07F03094A93609F
S2140801A0094B9847094B9847FEE700BF0000002018
S2140801B06804080034040020340400207404002076
S2140801C00000080000ED00E0D102080095020800D3
S2140801D04FF48063204A136002F5007213601F4BC9
S2140801E01B6A13F0807F07D11D4A1C4B1A621B4BF3
S2140801F09B6E13F0010FFAD01A4A184B1A62174B67
S2140802009B6E13F4803FFAD0144A136B23F0030353
S21408021043F001031363114B9B6E13F0080FFAD0DB
S214080220114A0E4B9A620D4B9B6E13F0020FFAD0D2
S21408023011220A4B1A63094B9B6E13F0080FFAD06B
S2140802401222064B1A63054B9B6E13F0080FFAD062
S214080250064A074B1A607047000A0E4000060E4012
S2140802600908370009083701013F0D2000BD0105C0
S2140802700000002082B042F2754303FB00F00190B4
S21408028000E000BF019B5A1E0192002BF9D102B074
S2140802907047000008B50B4B98470B4A136943F0A4
S2140802A000631361084C236B43F0006323636420E8
S2140802B0064DA847636B43F0006363636420A84752
S2140802C0F0E700BFD101080000100E4075020800D4
S2140802D070B50F4E0F4D761BB61018BF002405D00C
S2140802E0013455F8043B9847A642F9D10A4E0B4DFF
S2140802F000F0A8F8761BB61018BF002406D0013404
S21408030055F8043B9847A642F9D170BD70BD00BFAA
S2140803105004080050040800580408005004080058
S214080320024B13B1024800F005B870470000000001
S21408033041030800002301461A46184600F01EB876
S21408034038B50A4C0A4D641BA4100AD004F1804341
S214080350013B05EB8305013C55F804399847002C0A
S214080360F9D1BDE8384000F077B800BF6804080047
S21408037064040800704700BF704700BF2DE9F843C3
S2140803802C4D0646286898460F469146FFF7F2FF1A
S214080390294B1C68D4F84831002B3ED05A681F2ACF
S2140803A01CDC02F1010E76B1012103EB8204C4F8CD
S2140803B08890D3F8880191400843022EC3F8880134
S2140803C0C4F8088123D00232C3F804E0286843F84A
S2140803D02270FFF7D1FF0020BDE8F883174B0BB358
S2140803E04FF4C870AFF300800346D8B10020D4F8A5
S2140803F048114FF0010E586019600246C4F848319B
S214080400C3F88801C3F88C01002EDCD0CCE7D3F8FB
S2140804108C010143C3F88C11D5E704F5A673C4F81C
S2140804204831BBE72868FFF7A7FF4FF0FF30BDE865
S214080430F88300BF300400204004080000000000D5
S21408044008000020F8B500BFF8BC08BC9E467047F8
S2140804502103080019010800F8B500BFF8BC08BC5D
S20C0804609E467047F5000800EF
S21408046800093D000000000000000000F40200201B
S2140804785C030020C4030020000000000000000001
S2140804880000000000000000000000000000000057
S2140804980000000000000000000000000000000047
S2140804A80000000000000000000000000000000037
S2140804B80000000000000000000000000000000027
S2140804C80000000000000000000000000000000017
S2140804D80000000000000000000000000000000007
S2140804E800000000000000000000000000000000F7
S2140804F800000000000000000000000000000000E7
S21408050800000000000000000000000000000000D6
S21408051801000000000000000E33CDAB34126DE673
S214080528ECDE05000B0000000000000000000000DC
S21408053800000000000000000000000000000000A6
S2140805480000000000000000000000000000000096
S2140805580000000000000000000000000000000086
S2140805680000000000000000000000000000000076
S20808089850040020DB
S804080000F3
